{
    "contractName": "ComputeRegistryAddress",
    "abi": [
        {
            "inputs": [],
            "stateMutability": "nonpayable",
            "type": "constructor"
        },
        {
            "inputs": [],
            "name": "generaateAddress",
            "outputs": [
                {
                    "internalType": "address",
                    "name": "",
                    "type": "address"
                }
            ],
            "stateMutability": "pure",
            "type": "function"
        }
    ],
    "bytecode": "608060405234801561001057600080fd5b5061001961001f565b50610159565b60008061008f7f655165516551655165516551655165516551655165516551655165516551655160001b604051806020016100599061014c565b601f1982820381018352601f90910116604052805160209190910120734e59b44847b379578588920ca78fbf26c0b4956c61009f565b905061009a816100c9565b919050565b6000604051836040820152846020820152828152600b8101905060ff815360559020949350505050565b6040516001600160a01b03821660248201526101159060440160408051601f198184030181529190526020810180516001600160e01b0390811663161765e160e11b1790915261011816565b50565b6101158161012b60201b6100d31760201c565b60006a636f6e736f6c652e6c6f679050600080835160208501845afa505050565b6104a7806107e483390190565b61067c806101686000396000f3fe608060405234801561001057600080fd5b506004361061002b5760003560e01c80632a7bd55714610030575b600080fd5b610038610054565b6040516001600160a01b03909116815260200160405180910390f35b6000806100c37f655165516551655165516551655165516551655165516551655165516551655160001b6040518060200161008e9061017c565b6020820181038252601f19601f8201166040525080519060200120734e59b44847b379578588920ca78fbf26c0b4956c6100f4565b90506100ce8161011e565b919050565b60006a636f6e736f6c652e6c6f679050600080835160208501845afa505050565b6000604051836040820152846020820152828152600b8101905060ff815360559020949350505050565b6040516001600160a01b03821660248201526101669060440160408051601f198184030181529190526020810180516001600160e01b031663161765e160e11b179052610169565b50565b610166816100d3565b61017a610189565b565b6104a7806101a083390190565b634e487b7160e01b600052605160045260246000fdfe608060405234801561001057600080fd5b50610487806100206000396000f3fe608060405234801561001057600080fd5b50600436106100365760003560e01c80635e9bc5361461003b578063da7323b31461006a575b600080fd5b61004e6100493660046102c1565b61007d565b6040516001600160a01b03909116815260200160405180910390f35b61004e61007836600461030f565b6100ac565b60008061008d87878787876101fe565b805160209091012090506100a18382610267565b979650505050505050565b6000806100bc89898989896101fe565b905060006100d48660001b8380519060200120610267565b90506001600160a01b0381163b156100ef5791506100a19050565b604080516001600160a01b038381168252602082018c90529181018890528891808b1691908d16907f07fba7bba1191da7ee1155dcfa0030701c9c9a9cc34a93b991fc6fd0c9268d8f9060600160405180910390a4858251602084016000f590506001600160a01b038116610177576040516320188a5960e01b815260040160405180910390fd5b83156101f157600080826001600160a01b0316878760405161019a9291906103c0565b6000604051808303816000865af19150503d80600081146101d7576040519150601f19603f3d011682016040523d82523d6000602084013e6101dc565b606091505b5091509150816101ee57805160208201fd5b50505b9998505050505050505050565b60408051602081018390529081018590526001600160a01b0384166060828101919091526080820184905290869060a00160408051601f198184030181529082905261024d92916020016103d0565b604051602081830303815290604052905095945050505050565b600061027483833061027b565b9392505050565b6000604051836040820152846020820152828152600b8101905060ff815360559020949350505050565b80356001600160a01b03811681146102bc57600080fd5b919050565b600080600080600060a086880312156102d957600080fd5b6102e2866102a5565b9450602086013593506102f7604087016102a5565b94979396509394606081013594506080013592915050565b600080600080600080600060c0888a03121561032a57600080fd5b610333886102a5565b965060208801359550610348604089016102a5565b9450606088013593506080880135925060a088013567ffffffffffffffff8082111561037357600080fd5b818a0191508a601f83011261038757600080fd5b81358181111561039657600080fd5b8b60208285010111156103a857600080fd5b60208301945080935050505092959891949750929550565b8183823760009101908152919050565b733d60ad80600a3d3981f3363d3d373d3d3d363d7360601b8152606083901b6bffffffffffffffffffffffff191660148201526e5af43d82803e903d91602b57fd5bf360881b60288201528151600090815b8181101561043f5760208186018101516037868401015201610422565b5060009201603701918252509291505056fea2646970667358221220d9b871c98cefec4ed834c576aade00fce188411e6fcac7b5f749c48a9e333cb564736f6c63430008130033a26469706673582212208dd8a3e58dc5b3156142902ae0697ff9952630f92a0dab5236094e4e96a1f26a64736f6c63430008130033608060405234801561001057600080fd5b50610487806100206000396000f3fe608060405234801561001057600080fd5b50600436106100365760003560e01c80635e9bc5361461003b578063da7323b31461006a575b600080fd5b61004e6100493660046102c1565b61007d565b6040516001600160a01b03909116815260200160405180910390f35b61004e61007836600461030f565b6100ac565b60008061008d87878787876101fe565b805160209091012090506100a18382610267565b979650505050505050565b6000806100bc89898989896101fe565b905060006100d48660001b8380519060200120610267565b90506001600160a01b0381163b156100ef5791506100a19050565b604080516001600160a01b038381168252602082018c90529181018890528891808b1691908d16907f07fba7bba1191da7ee1155dcfa0030701c9c9a9cc34a93b991fc6fd0c9268d8f9060600160405180910390a4858251602084016000f590506001600160a01b038116610177576040516320188a5960e01b815260040160405180910390fd5b83156101f157600080826001600160a01b0316878760405161019a9291906103c0565b6000604051808303816000865af19150503d80600081146101d7576040519150601f19603f3d011682016040523d82523d6000602084013e6101dc565b606091505b5091509150816101ee57805160208201fd5b50505b9998505050505050505050565b60408051602081018390529081018590526001600160a01b0384166060828101919091526080820184905290869060a00160408051601f198184030181529082905261024d92916020016103d0565b604051602081830303815290604052905095945050505050565b600061027483833061027b565b9392505050565b6000604051836040820152846020820152828152600b8101905060ff815360559020949350505050565b80356001600160a01b03811681146102bc57600080fd5b919050565b600080600080600060a086880312156102d957600080fd5b6102e2866102a5565b9450602086013593506102f7604087016102a5565b94979396509394606081013594506080013592915050565b600080600080600080600060c0888a03121561032a57600080fd5b610333886102a5565b965060208801359550610348604089016102a5565b9450606088013593506080880135925060a088013567ffffffffffffffff8082111561037357600080fd5b818a0191508a601f83011261038757600080fd5b81358181111561039657600080fd5b8b60208285010111156103a857600080fd5b60208301945080935050505092959891949750929550565b8183823760009101908152919050565b733d60ad80600a3d3981f3363d3d373d3d3d363d7360601b8152606083901b6bffffffffffffffffffffffff191660148201526e5af43d82803e903d91602b57fd5bf360881b60288201528151600090815b8181101561043f5760208186018101516037868401015201610422565b5060009201603701918252509291505056fea2646970667358221220d9b871c98cefec4ed834c576aade00fce188411e6fcac7b5f749c48a9e333cb564736f6c63430008130033",
    "sourcePath": "c:/Users/Daniel/Desktop/hackathon/pop/chain/contracts/lib/computeRegistry.sol",
    "compiler": {
        "name": "solc",
        "version": "0.8.19+commit.7dd6d404"
    },
    "functionHashes": {
        "generaateAddress()": "2a7bd557"
    },
    "gasEstimates": {
        "creation": {
            "codeDepositCost": "332000",
            "executionCost": "infinite",
            "totalCost": "infinite"
        },
        "external": {
            "generaateAddress()": "infinite"
        }
    }
}